{
  "_format": "hh-sol-artifact-1",
  "contractName": "TrustifiedIssuer",
  "sourceName": "contracts/TrustifiedIssuer.sol",
  "abi": [
    {
      "inputs": [
        {
          "internalType": "address[]",
          "name": "wallets",
          "type": "address[]"
        },
        {
          "internalType": "bool[]",
          "name": "allowed",
          "type": "bool[]"
        }
      ],
      "stateMutability": "nonpayable",
      "type": "constructor"
    },
    {
      "anonymous": false,
      "inputs": [
        {
          "indexed": true,
          "internalType": "address",
          "name": "owner",
          "type": "address"
        },
        {
          "indexed": true,
          "internalType": "address",
          "name": "approved",
          "type": "address"
        },
        {
          "indexed": true,
          "internalType": "uint256",
          "name": "tokenId",
          "type": "uint256"
        }
      ],
      "name": "Approval",
      "type": "event"
    },
    {
      "anonymous": false,
      "inputs": [
        {
          "indexed": true,
          "internalType": "address",
          "name": "owner",
          "type": "address"
        },
        {
          "indexed": true,
          "internalType": "address",
          "name": "operator",
          "type": "address"
        },
        {
          "indexed": false,
          "internalType": "bool",
          "name": "approved",
          "type": "bool"
        }
      ],
      "name": "ApprovalForAll",
      "type": "event"
    },
    {
      "anonymous": false,
      "inputs": [
        {
          "indexed": false,
          "internalType": "uint256",
          "name": "_fromTokenId",
          "type": "uint256"
        },
        {
          "indexed": false,
          "internalType": "uint256",
          "name": "_toTokenId",
          "type": "uint256"
        }
      ],
      "name": "BatchMetadataUpdate",
      "type": "event"
    },
    {
      "anonymous": false,
      "inputs": [
        {
          "indexed": false,
          "internalType": "uint256",
          "name": "_tokenId",
          "type": "uint256"
        }
      ],
      "name": "MetadataUpdate",
      "type": "event"
    },
    {
      "anonymous": false,
      "inputs": [
        {
          "indexed": true,
          "internalType": "address",
          "name": "from",
          "type": "address"
        },
        {
          "indexed": true,
          "internalType": "address",
          "name": "to",
          "type": "address"
        },
        {
          "indexed": true,
          "internalType": "uint256",
          "name": "tokenId",
          "type": "uint256"
        }
      ],
      "name": "Transfer",
      "type": "event"
    },
    {
      "inputs": [
        {
          "internalType": "address",
          "name": "to",
          "type": "address"
        },
        {
          "internalType": "uint256",
          "name": "tokenId",
          "type": "uint256"
        }
      ],
      "name": "approve",
      "outputs": [],
      "stateMutability": "nonpayable",
      "type": "function"
    },
    {
      "inputs": [
        {
          "internalType": "address",
          "name": "owner",
          "type": "address"
        }
      ],
      "name": "balanceOf",
      "outputs": [
        {
          "internalType": "uint256",
          "name": "",
          "type": "uint256"
        }
      ],
      "stateMutability": "view",
      "type": "function"
    },
    {
      "inputs": [
        {
          "internalType": "string",
          "name": "tokenURI",
          "type": "string"
        },
        {
          "internalType": "address[]",
          "name": "issuers",
          "type": "address[]"
        }
      ],
      "name": "createTokens",
      "outputs": [],
      "stateMutability": "nonpayable",
      "type": "function"
    },
    {
      "inputs": [
        {
          "internalType": "uint256",
          "name": "tokenId",
          "type": "uint256"
        }
      ],
      "name": "getApproved",
      "outputs": [
        {
          "internalType": "address",
          "name": "",
          "type": "address"
        }
      ],
      "stateMutability": "view",
      "type": "function"
    },
    {
      "inputs": [],
      "name": "isAllowed",
      "outputs": [
        {
          "internalType": "bool",
          "name": "",
          "type": "bool"
        }
      ],
      "stateMutability": "view",
      "type": "function"
    },
    {
      "inputs": [
        {
          "internalType": "address",
          "name": "owner",
          "type": "address"
        },
        {
          "internalType": "address",
          "name": "operator",
          "type": "address"
        }
      ],
      "name": "isApprovedForAll",
      "outputs": [
        {
          "internalType": "bool",
          "name": "",
          "type": "bool"
        }
      ],
      "stateMutability": "view",
      "type": "function"
    },
    {
      "inputs": [],
      "name": "name",
      "outputs": [
        {
          "internalType": "string",
          "name": "",
          "type": "string"
        }
      ],
      "stateMutability": "view",
      "type": "function"
    },
    {
      "inputs": [],
      "name": "owner",
      "outputs": [
        {
          "internalType": "address",
          "name": "",
          "type": "address"
        }
      ],
      "stateMutability": "view",
      "type": "function"
    },
    {
      "inputs": [
        {
          "internalType": "uint256",
          "name": "tokenId",
          "type": "uint256"
        }
      ],
      "name": "ownerOf",
      "outputs": [
        {
          "internalType": "address",
          "name": "",
          "type": "address"
        }
      ],
      "stateMutability": "view",
      "type": "function"
    },
    {
      "inputs": [
        {
          "internalType": "address",
          "name": "from",
          "type": "address"
        },
        {
          "internalType": "address",
          "name": "to",
          "type": "address"
        },
        {
          "internalType": "uint256",
          "name": "tokenId",
          "type": "uint256"
        }
      ],
      "name": "safeTransferFrom",
      "outputs": [],
      "stateMutability": "nonpayable",
      "type": "function"
    },
    {
      "inputs": [
        {
          "internalType": "address",
          "name": "from",
          "type": "address"
        },
        {
          "internalType": "address",
          "name": "to",
          "type": "address"
        },
        {
          "internalType": "uint256",
          "name": "tokenId",
          "type": "uint256"
        },
        {
          "internalType": "bytes",
          "name": "data",
          "type": "bytes"
        }
      ],
      "name": "safeTransferFrom",
      "outputs": [],
      "stateMutability": "nonpayable",
      "type": "function"
    },
    {
      "inputs": [
        {
          "internalType": "address",
          "name": "wallet",
          "type": "address"
        },
        {
          "internalType": "bool",
          "name": "allowed",
          "type": "bool"
        }
      ],
      "name": "setAllowedWallet",
      "outputs": [],
      "stateMutability": "nonpayable",
      "type": "function"
    },
    {
      "inputs": [
        {
          "internalType": "address",
          "name": "operator",
          "type": "address"
        },
        {
          "internalType": "bool",
          "name": "approved",
          "type": "bool"
        }
      ],
      "name": "setApprovalForAll",
      "outputs": [],
      "stateMutability": "nonpayable",
      "type": "function"
    },
    {
      "inputs": [
        {
          "internalType": "bytes4",
          "name": "interfaceId",
          "type": "bytes4"
        }
      ],
      "name": "supportsInterface",
      "outputs": [
        {
          "internalType": "bool",
          "name": "",
          "type": "bool"
        }
      ],
      "stateMutability": "view",
      "type": "function"
    },
    {
      "inputs": [],
      "name": "symbol",
      "outputs": [
        {
          "internalType": "string",
          "name": "",
          "type": "string"
        }
      ],
      "stateMutability": "view",
      "type": "function"
    },
    {
      "inputs": [
        {
          "internalType": "uint256",
          "name": "tokenId",
          "type": "uint256"
        }
      ],
      "name": "tokenURI",
      "outputs": [
        {
          "internalType": "string",
          "name": "",
          "type": "string"
        }
      ],
      "stateMutability": "view",
      "type": "function"
    },
    {
      "inputs": [
        {
          "internalType": "address",
          "name": "from",
          "type": "address"
        },
        {
          "internalType": "address",
          "name": "to",
          "type": "address"
        },
        {
          "internalType": "uint256",
          "name": "tokenId",
          "type": "uint256"
        }
      ],
      "name": "transferFrom",
      "outputs": [],
      "stateMutability": "nonpayable",
      "type": "function"
    }
  ],
  "bytecode": "0x60806040523480156200001157600080fd5b50604051620035b6380380620035b683398181016040528101906200003791906200044b565b6040518060400160405280601281526020017f54727573746966696564497373756572763500000000000000000000000000008152506040518060400160405280600481526020017f54497635000000000000000000000000000000000000000000000000000000008152508160009080519060200190620000bb92919062000229565b508060019080519060200190620000d492919062000229565b50505033600960006101000a81548173ffffffffffffffffffffffffffffffffffffffff021916908373ffffffffffffffffffffffffffffffffffffffff16021790555060005b82518161ffff1610156200022057818161ffff168151811062000167577f4e487b7100000000000000000000000000000000000000000000000000000000600052603260045260246000fd5b6020026020010151600a6000858461ffff1681518110620001b1577f4e487b7100000000000000000000000000000000000000000000000000000000600052603260045260246000fd5b602002602001015173ffffffffffffffffffffffffffffffffffffffff1673ffffffffffffffffffffffffffffffffffffffff16815260200190815260200160002060006101000a81548160ff02191690831515021790555080806200021790620005ff565b9150506200011b565b50505062000701565b828054620002379062000593565b90600052602060002090601f0160209004810192826200025b5760008555620002a7565b82601f106200027657805160ff1916838001178555620002a7565b82800160010185558215620002a7579182015b82811115620002a657825182559160200191906001019062000289565b5b509050620002b69190620002ba565b5090565b5b80821115620002d5576000816000905550600101620002bb565b5090565b6000620002f0620002ea84620004e7565b620004be565b905080838252602082019050828560208602820111156200031057600080fd5b60005b85811015620003445781620003298882620003c3565b84526020840193506020830192505060018101905062000313565b5050509392505050565b6000620003656200035f8462000516565b620004be565b905080838252602082019050828560208602820111156200038557600080fd5b60005b85811015620003b957816200039e888262000434565b84526020840193506020830192505060018101905062000388565b5050509392505050565b600081519050620003d481620006cd565b92915050565b600082601f830112620003ec57600080fd5b8151620003fe848260208601620002d9565b91505092915050565b600082601f8301126200041957600080fd5b81516200042b8482602086016200034e565b91505092915050565b6000815190506200044581620006e7565b92915050565b600080604083850312156200045f57600080fd5b600083015167ffffffffffffffff8111156200047a57600080fd5b6200048885828601620003da565b925050602083015167ffffffffffffffff811115620004a657600080fd5b620004b48582860162000407565b9150509250929050565b6000620004ca620004dd565b9050620004d88282620005c9565b919050565b6000604051905090565b600067ffffffffffffffff8211156200050557620005046200068d565b5b602082029050602081019050919050565b600067ffffffffffffffff8211156200053457620005336200068d565b5b602082029050602081019050919050565b6000620005528262000573565b9050919050565b60008115159050919050565b600061ffff82169050919050565b600073ffffffffffffffffffffffffffffffffffffffff82169050919050565b60006002820490506001821680620005ac57607f821691505b60208210811415620005c357620005c26200065e565b5b50919050565b620005d482620006bc565b810181811067ffffffffffffffff82111715620005f657620005f56200068d565b5b80604052505050565b60006200060c8262000565565b915061ffff8214156200062457620006236200062f565b5b600182019050919050565b7f4e487b7100000000000000000000000000000000000000000000000000000000600052601160045260246000fd5b7f4e487b7100000000000000000000000000000000000000000000000000000000600052602260045260246000fd5b7f4e487b7100000000000000000000000000000000000000000000000000000000600052604160045260246000fd5b6000601f19601f8301169050919050565b620006d88162000545565b8114620006e457600080fd5b50565b620006f28162000559565b8114620006fe57600080fd5b50565b612ea580620007116000396000f3fe608060405234801561001057600080fd5b506004361061010b5760003560e01c806370a08231116100a2578063a21fbc9211610071578063a21fbc92146102b6578063a22cb465146102d4578063b88d4fde146102f0578063c87b56dd1461030c578063e985e9c51461033c5761010b565b806370a082311461022e5780638da5cb5b1461025e57806395d89b411461027c5780639c2901151461029a5761010b565b806323b872dd116100de57806323b872dd146101aa578063322f89e6146101c657806342842e0e146101e25780636352211e146101fe5761010b565b806301ffc9a71461011057806306fdde0314610140578063081812fc1461015e578063095ea7b31461018e575b600080fd5b61012a60048036038101906101259190612147565b61036c565b6040516101379190612577565b60405180910390f35b6101486103cd565b6040516101559190612592565b60405180910390f35b61017860048036038101906101739190612209565b61045f565b6040516101859190612510565b60405180910390f35b6101a860048036038101906101a3919061210b565b6104a5565b005b6101c460048036038101906101bf9190612005565b6105bd565b005b6101e060048036038101906101db9190612199565b61061d565b005b6101fc60048036038101906101f79190612005565b61074a565b005b61021860048036038101906102139190612209565b61076a565b6040516102259190612510565b60405180910390f35b61024860048036038101906102439190611fa0565b6107f1565b6040516102559190612774565b60405180910390f35b6102666108a9565b6040516102739190612510565b60405180910390f35b6102846108cf565b6040516102919190612592565b60405180910390f35b6102b460048036038101906102af91906120cf565b610961565b005b6102be610a4c565b6040516102cb9190612577565b60405180910390f35b6102ee60048036038101906102e991906120cf565b610aa0565b005b61030a60048036038101906103059190612054565b610ab6565b005b61032660048036038101906103219190612209565b610b18565b6040516103339190612592565b60405180910390f35b61035660048036038101906103519190611fc9565b610c2b565b6040516103639190612577565b60405180910390f35b6000634906490660e01b7bffffffffffffffffffffffffffffffffffffffffffffffffffffffff1916827bffffffffffffffffffffffffffffffffffffffffffffffffffffffff191614806103c657506103c582610cbf565b5b9050919050565b6060600080546103dc9061290f565b80601f01602080910402602001604051908101604052809291908181526020018280546104089061290f565b80156104555780601f1061042a57610100808354040283529160200191610455565b820191906000526020600020905b81548152906001019060200180831161043857829003601f168201915b5050505050905090565b600061046a82610da1565b6004600083815260200190815260200160002060009054906101000a900473ffffffffffffffffffffffffffffffffffffffff169050919050565b60006104b08261076a565b90508073ffffffffffffffffffffffffffffffffffffffff168373ffffffffffffffffffffffffffffffffffffffff161415610521576040517f08c379a000000000000000000000000000000000000000000000000000000000815260040161051890612734565b60405180910390fd5b8073ffffffffffffffffffffffffffffffffffffffff16610540610dec565b73ffffffffffffffffffffffffffffffffffffffff16148061056f575061056e81610569610dec565b610c2b565b5b6105ae576040517f08c379a00000000000000000000000000000000000000000000000000000000081526004016105a590612754565b60405180910390fd5b6105b88383610df4565b505050565b6105ce6105c8610dec565b82610ead565b61060d576040517f08c379a0000000000000000000000000000000000000000000000000000000008152600401610604906125b4565b60405180910390fd5b610618838383610f42565b505050565b600a60003373ffffffffffffffffffffffffffffffffffffffff1673ffffffffffffffffffffffffffffffffffffffff16815260200190815260200160002060009054906101000a900460ff166106a9576040517f08c379a00000000000000000000000000000000000000000000000000000000081526004016106a090612694565b60405180910390fd5b60005b82829050811015610744576106c1600761123c565b60006106cd6007611252565b905061072684848481811061070b577f4e487b7100000000000000000000000000000000000000000000000000000000600052603260045260246000fd5b90506020020160208101906107209190611fa0565b82611260565b610730818661147e565b50808061073c90612972565b9150506106ac565b50505050565b61076583838360405180602001604052806000815250610ab6565b505050565b60008061077683611529565b9050600073ffffffffffffffffffffffffffffffffffffffff168173ffffffffffffffffffffffffffffffffffffffff1614156107e8576040517f08c379a00000000000000000000000000000000000000000000000000000000081526004016107df90612714565b60405180910390fd5b80915050919050565b60008073ffffffffffffffffffffffffffffffffffffffff168273ffffffffffffffffffffffffffffffffffffffff161415610862576040517f08c379a000000000000000000000000000000000000000000000000000000000815260040161085990612674565b60405180910390fd5b600360008373ffffffffffffffffffffffffffffffffffffffff1673ffffffffffffffffffffffffffffffffffffffff168152602001908152602001600020549050919050565b600960009054906101000a900473ffffffffffffffffffffffffffffffffffffffff1681565b6060600180546108de9061290f565b80601f016020809104026020016040519081016040528092919081815260200182805461090a9061290f565b80156109575780601f1061092c57610100808354040283529160200191610957565b820191906000526020600020905b81548152906001019060200180831161093a57829003601f168201915b5050505050905090565b600960009054906101000a900473ffffffffffffffffffffffffffffffffffffffff1673ffffffffffffffffffffffffffffffffffffffff163373ffffffffffffffffffffffffffffffffffffffff16146109f1576040517f08c379a00000000000000000000000000000000000000000000000000000000081526004016109e8906126f4565b60405180910390fd5b80600a60008473ffffffffffffffffffffffffffffffffffffffff1673ffffffffffffffffffffffffffffffffffffffff16815260200190815260200160002060006101000a81548160ff0219169083151502179055505050565b6000600a60003373ffffffffffffffffffffffffffffffffffffffff1673ffffffffffffffffffffffffffffffffffffffff16815260200190815260200160002060009054906101000a900460ff16905090565b610ab2610aab610dec565b8383611566565b5050565b610ac7610ac1610dec565b83610ead565b610b06576040517f08c379a0000000000000000000000000000000000000000000000000000000008152600401610afd906125b4565b60405180910390fd5b610b12848484846116d3565b50505050565b6060610b2382610da1565b6000600660008481526020019081526020016000208054610b439061290f565b80601f0160208091040260200160405190810160405280929190818152602001828054610b6f9061290f565b8015610bbc5780601f10610b9157610100808354040283529160200191610bbc565b820191906000526020600020905b815481529060010190602001808311610b9f57829003601f168201915b505050505090506000610bcd61172f565b9050600081511415610be3578192505050610c26565b600082511115610c18578082604051602001610c009291906124ec565b60405160208183030381529060405292505050610c26565b610c2184611746565b925050505b919050565b6000600560008473ffffffffffffffffffffffffffffffffffffffff1673ffffffffffffffffffffffffffffffffffffffff16815260200190815260200160002060008373ffffffffffffffffffffffffffffffffffffffff1673ffffffffffffffffffffffffffffffffffffffff16815260200190815260200160002060009054906101000a900460ff16905092915050565b60007f80ac58cd000000000000000000000000000000000000000000000000000000007bffffffffffffffffffffffffffffffffffffffffffffffffffffffff1916827bffffffffffffffffffffffffffffffffffffffffffffffffffffffff19161480610d8a57507f5b5e139f000000000000000000000000000000000000000000000000000000007bffffffffffffffffffffffffffffffffffffffffffffffffffffffff1916827bffffffffffffffffffffffffffffffffffffffffffffffffffffffff1916145b80610d9a5750610d99826117ae565b5b9050919050565b610daa81611818565b610de9576040517f08c379a0000000000000000000000000000000000000000000000000000000008152600401610de090612714565b60405180910390fd5b50565b600033905090565b816004600083815260200190815260200160002060006101000a81548173ffffffffffffffffffffffffffffffffffffffff021916908373ffffffffffffffffffffffffffffffffffffffff160217905550808273ffffffffffffffffffffffffffffffffffffffff16610e678361076a565b73ffffffffffffffffffffffffffffffffffffffff167f8c5be1e5ebec7d5bd14f71427d1e84f3dd0314c0f7b2291e5b200ac8c7c3b92560405160405180910390a45050565b600080610eb98361076a565b90508073ffffffffffffffffffffffffffffffffffffffff168473ffffffffffffffffffffffffffffffffffffffff161480610efb5750610efa8185610c2b565b5b80610f3957508373ffffffffffffffffffffffffffffffffffffffff16610f218461045f565b73ffffffffffffffffffffffffffffffffffffffff16145b91505092915050565b8273ffffffffffffffffffffffffffffffffffffffff16610f628261076a565b73ffffffffffffffffffffffffffffffffffffffff1614610fb8576040517f08c379a0000000000000000000000000000000000000000000000000000000008152600401610faf906125f4565b60405180910390fd5b600073ffffffffffffffffffffffffffffffffffffffff168273ffffffffffffffffffffffffffffffffffffffff161415611028576040517f08c379a000000000000000000000000000000000000000000000000000000000815260040161101f90612634565b60405180910390fd5b6110358383836001611859565b8273ffffffffffffffffffffffffffffffffffffffff166110558261076a565b73ffffffffffffffffffffffffffffffffffffffff16146110ab576040517f08c379a00000000000000000000000000000000000000000000000000000000081526004016110a2906125f4565b60405180910390fd5b6004600082815260200190815260200160002060006101000a81549073ffffffffffffffffffffffffffffffffffffffff02191690556001600360008573ffffffffffffffffffffffffffffffffffffffff1673ffffffffffffffffffffffffffffffffffffffff168152602001908152602001600020600082825403925050819055506001600360008473ffffffffffffffffffffffffffffffffffffffff1673ffffffffffffffffffffffffffffffffffffffff16815260200190815260200160002060008282540192505081905550816002600083815260200190815260200160002060006101000a81548173ffffffffffffffffffffffffffffffffffffffff021916908373ffffffffffffffffffffffffffffffffffffffff160217905550808273ffffffffffffffffffffffffffffffffffffffff168473ffffffffffffffffffffffffffffffffffffffff167fddf252ad1be2c89b69c2b068fc378daa952ba7f163c4a11628f55a4df523b3ef60405160405180910390a4611237838383600161185f565b505050565b6001816000016000828254019250508190555050565b600081600001549050919050565b600073ffffffffffffffffffffffffffffffffffffffff168273ffffffffffffffffffffffffffffffffffffffff1614156112d0576040517f08c379a00000000000000000000000000000000000000000000000000000000081526004016112c7906126d4565b60405180910390fd5b6112d981611818565b15611319576040517f08c379a000000000000000000000000000000000000000000000000000000000815260040161131090612614565b60405180910390fd5b611327600083836001611859565b61133081611818565b15611370576040517f08c379a000000000000000000000000000000000000000000000000000000000815260040161136790612614565b60405180910390fd5b6001600360008473ffffffffffffffffffffffffffffffffffffffff1673ffffffffffffffffffffffffffffffffffffffff16815260200190815260200160002060008282540192505081905550816002600083815260200190815260200160002060006101000a81548173ffffffffffffffffffffffffffffffffffffffff021916908373ffffffffffffffffffffffffffffffffffffffff160217905550808273ffffffffffffffffffffffffffffffffffffffff16600073ffffffffffffffffffffffffffffffffffffffff167fddf252ad1be2c89b69c2b068fc378daa952ba7f163c4a11628f55a4df523b3ef60405160405180910390a461147a60008383600161185f565b5050565b61148782611818565b6114c6576040517f08c379a00000000000000000000000000000000000000000000000000000000081526004016114bd906126b4565b60405180910390fd5b806006600084815260200190815260200160002090805190602001906114ed929190611d7a565b507ff8e1a15aba9398e019f0b49df1a4fde98ee17ae345cb5f6b5e2c27f5033e8ce78260405161151d9190612774565b60405180910390a15050565b60006002600083815260200190815260200160002060009054906101000a900473ffffffffffffffffffffffffffffffffffffffff169050919050565b8173ffffffffffffffffffffffffffffffffffffffff168373ffffffffffffffffffffffffffffffffffffffff1614156115d5576040517f08c379a00000000000000000000000000000000000000000000000000000000081526004016115cc90612654565b60405180910390fd5b80600560008573ffffffffffffffffffffffffffffffffffffffff1673ffffffffffffffffffffffffffffffffffffffff16815260200190815260200160002060008473ffffffffffffffffffffffffffffffffffffffff1673ffffffffffffffffffffffffffffffffffffffff16815260200190815260200160002060006101000a81548160ff0219169083151502179055508173ffffffffffffffffffffffffffffffffffffffff168373ffffffffffffffffffffffffffffffffffffffff167f17307eab39ab6107e8899845ad3d59bd9653f200f220920489ca2b5937696c31836040516116c69190612577565b60405180910390a3505050565b6116de848484610f42565b6116ea84848484611865565b611729576040517f08c379a0000000000000000000000000000000000000000000000000000000008152600401611720906125d4565b60405180910390fd5b50505050565b606060405180602001604052806000815250905090565b606061175182610da1565b600061175b61172f565b9050600081511161177b57604051806020016040528060008152506117a6565b80611785846119fc565b6040516020016117969291906124ec565b6040516020818303038152906040525b915050919050565b60007f01ffc9a7000000000000000000000000000000000000000000000000000000007bffffffffffffffffffffffffffffffffffffffffffffffffffffffff1916827bffffffffffffffffffffffffffffffffffffffffffffffffffffffff1916149050919050565b60008073ffffffffffffffffffffffffffffffffffffffff1661183a83611529565b73ffffffffffffffffffffffffffffffffffffffff1614159050919050565b50505050565b50505050565b60006118868473ffffffffffffffffffffffffffffffffffffffff16611b20565b156119ef578373ffffffffffffffffffffffffffffffffffffffff1663150b7a026118af610dec565b8786866040518563ffffffff1660e01b81526004016118d1949392919061252b565b602060405180830381600087803b1580156118eb57600080fd5b505af192505050801561191c57506040513d601f19601f820116820180604052508101906119199190612170565b60015b61199f573d806000811461194c576040519150601f19603f3d011682016040523d82523d6000602084013e611951565b606091505b50600081511415611997576040517f08c379a000000000000000000000000000000000000000000000000000000000815260040161198e906125d4565b60405180910390fd5b805181602001fd5b63150b7a0260e01b7bffffffffffffffffffffffffffffffffffffffffffffffffffffffff1916817bffffffffffffffffffffffffffffffffffffffffffffffffffffffff1916149150506119f4565b600190505b949350505050565b606060006001611a0b84611b43565b01905060008167ffffffffffffffff811115611a50577f4e487b7100000000000000000000000000000000000000000000000000000000600052604160045260246000fd5b6040519080825280601f01601f191660200182016040528015611a825781602001600182028036833780820191505090505b509050600082602001820190505b600115611b15578080600190039150507f3031323334353637383961626364656600000000000000000000000000000000600a86061a8153600a8581611aff577f4e487b7100000000000000000000000000000000000000000000000000000000600052601260045260246000fd5b0494506000851415611b1057611b15565b611a90565b819350505050919050565b6000808273ffffffffffffffffffffffffffffffffffffffff163b119050919050565b600080600090507a184f03e93ff9f4daa797ed6e38ed64bf6a1f0100000000000000008310611bc7577a184f03e93ff9f4daa797ed6e38ed64bf6a1f0100000000000000008381611bbd577f4e487b7100000000000000000000000000000000000000000000000000000000600052601260045260246000fd5b0492506040810190505b6d04ee2d6d415b85acef81000000008310611c2a576d04ee2d6d415b85acef81000000008381611c20577f4e487b7100000000000000000000000000000000000000000000000000000000600052601260045260246000fd5b0492506020810190505b662386f26fc100008310611c7f57662386f26fc100008381611c75577f4e487b7100000000000000000000000000000000000000000000000000000000600052601260045260246000fd5b0492506010810190505b6305f5e1008310611cce576305f5e1008381611cc4577f4e487b7100000000000000000000000000000000000000000000000000000000600052601260045260246000fd5b0492506008810190505b6127108310611d19576127108381611d0f577f4e487b7100000000000000000000000000000000000000000000000000000000600052601260045260246000fd5b0492506004810190505b60648310611d625760648381611d58577f4e487b7100000000000000000000000000000000000000000000000000000000600052601260045260246000fd5b0492506002810190505b600a8310611d71576001810190505b80915050919050565b828054611d869061290f565b90600052602060002090601f016020900481019282611da85760008555611def565b82601f10611dc157805160ff1916838001178555611def565b82800160010185558215611def579182015b82811115611dee578251825591602001919060010190611dd3565b5b509050611dfc9190611e00565b5090565b5b80821115611e19576000816000905550600101611e01565b5090565b6000611e30611e2b846127b4565b61278f565b905082815260208101848484011115611e4857600080fd5b611e538482856128cd565b509392505050565b6000611e6e611e69846127e5565b61278f565b905082815260208101848484011115611e8657600080fd5b611e918482856128cd565b509392505050565b600081359050611ea881612e13565b92915050565b60008083601f840112611ec057600080fd5b8235905067ffffffffffffffff811115611ed957600080fd5b602083019150836020820283011115611ef157600080fd5b9250929050565b600081359050611f0781612e2a565b92915050565b600081359050611f1c81612e41565b92915050565b600081519050611f3181612e41565b92915050565b600082601f830112611f4857600080fd5b8135611f58848260208601611e1d565b91505092915050565b600082601f830112611f7257600080fd5b8135611f82848260208601611e5b565b91505092915050565b600081359050611f9a81612e58565b92915050565b600060208284031215611fb257600080fd5b6000611fc084828501611e99565b91505092915050565b60008060408385031215611fdc57600080fd5b6000611fea85828601611e99565b9250506020611ffb85828601611e99565b9150509250929050565b60008060006060848603121561201a57600080fd5b600061202886828701611e99565b935050602061203986828701611e99565b925050604061204a86828701611f8b565b9150509250925092565b6000806000806080858703121561206a57600080fd5b600061207887828801611e99565b945050602061208987828801611e99565b935050604061209a87828801611f8b565b925050606085013567ffffffffffffffff8111156120b757600080fd5b6120c387828801611f37565b91505092959194509250565b600080604083850312156120e257600080fd5b60006120f085828601611e99565b925050602061210185828601611ef8565b9150509250929050565b6000806040838503121561211e57600080fd5b600061212c85828601611e99565b925050602061213d85828601611f8b565b9150509250929050565b60006020828403121561215957600080fd5b600061216784828501611f0d565b91505092915050565b60006020828403121561218257600080fd5b600061219084828501611f22565b91505092915050565b6000806000604084860312156121ae57600080fd5b600084013567ffffffffffffffff8111156121c857600080fd5b6121d486828701611f61565b935050602084013567ffffffffffffffff8111156121f157600080fd5b6121fd86828701611eae565b92509250509250925092565b60006020828403121561221b57600080fd5b600061222984828501611f8b565b91505092915050565b61223b81612859565b82525050565b61224a8161286b565b82525050565b600061225b82612816565b612265818561282c565b93506122758185602086016128dc565b61227e81612a48565b840191505092915050565b600061229482612821565b61229e818561283d565b93506122ae8185602086016128dc565b6122b781612a48565b840191505092915050565b60006122cd82612821565b6122d7818561284e565b93506122e78185602086016128dc565b80840191505092915050565b6000612300602d8361283d565b915061230b82612a59565b604082019050919050565b600061232360328361283d565b915061232e82612aa8565b604082019050919050565b600061234660258361283d565b915061235182612af7565b604082019050919050565b6000612369601c8361283d565b915061237482612b46565b602082019050919050565b600061238c60248361283d565b915061239782612b6f565b604082019050919050565b60006123af60198361283d565b91506123ba82612bbe565b602082019050919050565b60006123d260298361283d565b91506123dd82612be7565b604082019050919050565b60006123f560278361283d565b915061240082612c36565b604082019050919050565b6000612418602e8361283d565b915061242382612c85565b604082019050919050565b600061243b60208361283d565b915061244682612cd4565b602082019050919050565b600061245e602a8361283d565b915061246982612cfd565b604082019050919050565b600061248160188361283d565b915061248c82612d4c565b602082019050919050565b60006124a460218361283d565b91506124af82612d75565b604082019050919050565b60006124c7603d8361283d565b91506124d282612dc4565b604082019050919050565b6124e6816128c3565b82525050565b60006124f882856122c2565b915061250482846122c2565b91508190509392505050565b60006020820190506125256000830184612232565b92915050565b60006080820190506125406000830187612232565b61254d6020830186612232565b61255a60408301856124dd565b818103606083015261256c8184612250565b905095945050505050565b600060208201905061258c6000830184612241565b92915050565b600060208201905081810360008301526125ac8184612289565b905092915050565b600060208201905081810360008301526125cd816122f3565b9050919050565b600060208201905081810360008301526125ed81612316565b9050919050565b6000602082019050818103600083015261260d81612339565b9050919050565b6000602082019050818103600083015261262d8161235c565b9050919050565b6000602082019050818103600083015261264d8161237f565b9050919050565b6000602082019050818103600083015261266d816123a2565b9050919050565b6000602082019050818103600083015261268d816123c5565b9050919050565b600060208201905081810360008301526126ad816123e8565b9050919050565b600060208201905081810360008301526126cd8161240b565b9050919050565b600060208201905081810360008301526126ed8161242e565b9050919050565b6000602082019050818103600083015261270d81612451565b9050919050565b6000602082019050818103600083015261272d81612474565b9050919050565b6000602082019050818103600083015261274d81612497565b9050919050565b6000602082019050818103600083015261276d816124ba565b9050919050565b600060208201905061278960008301846124dd565b92915050565b60006127996127aa565b90506127a58282612941565b919050565b6000604051905090565b600067ffffffffffffffff8211156127cf576127ce612a19565b5b6127d882612a48565b9050602081019050919050565b600067ffffffffffffffff821115612800576127ff612a19565b5b61280982612a48565b9050602081019050919050565b600081519050919050565b600081519050919050565b600082825260208201905092915050565b600082825260208201905092915050565b600081905092915050565b6000612864826128a3565b9050919050565b60008115159050919050565b60007fffffffff0000000000000000000000000000000000000000000000000000000082169050919050565b600073ffffffffffffffffffffffffffffffffffffffff82169050919050565b6000819050919050565b82818337600083830152505050565b60005b838110156128fa5780820151818401526020810190506128df565b83811115612909576000848401525b50505050565b6000600282049050600182168061292757607f821691505b6020821081141561293b5761293a6129ea565b5b50919050565b61294a82612a48565b810181811067ffffffffffffffff8211171561296957612968612a19565b5b80604052505050565b600061297d826128c3565b91507fffffffffffffffffffffffffffffffffffffffffffffffffffffffffffffffff8214156129b0576129af6129bb565b5b600182019050919050565b7f4e487b7100000000000000000000000000000000000000000000000000000000600052601160045260246000fd5b7f4e487b7100000000000000000000000000000000000000000000000000000000600052602260045260246000fd5b7f4e487b7100000000000000000000000000000000000000000000000000000000600052604160045260246000fd5b6000601f19601f8301169050919050565b7f4552433732313a2063616c6c6572206973206e6f7420746f6b656e206f776e6560008201527f72206f7220617070726f76656400000000000000000000000000000000000000602082015250565b7f4552433732313a207472616e7366657220746f206e6f6e20455243373231526560008201527f63656976657220696d706c656d656e7465720000000000000000000000000000602082015250565b7f4552433732313a207472616e736665722066726f6d20696e636f72726563742060008201527f6f776e6572000000000000000000000000000000000000000000000000000000602082015250565b7f4552433732313a20746f6b656e20616c7265616479206d696e74656400000000600082015250565b7f4552433732313a207472616e7366657220746f20746865207a65726f2061646460008201527f7265737300000000000000000000000000000000000000000000000000000000602082015250565b7f4552433732313a20617070726f766520746f2063616c6c657200000000000000600082015250565b7f4552433732313a2061646472657373207a65726f206973206e6f74206120766160008201527f6c6964206f776e65720000000000000000000000000000000000000000000000602082015250565b7f43616c6c6572206973206e6f7420616c6c6f77656420746f206372656174652060008201527f746f6b656e732100000000000000000000000000000000000000000000000000602082015250565b7f45524337323155524953746f726167653a2055524920736574206f66206e6f6e60008201527f6578697374656e7420746f6b656e000000000000000000000000000000000000602082015250565b7f4552433732313a206d696e7420746f20746865207a65726f2061646472657373600082015250565b7f4f6e6c7920636f6e7472616374206f776e65722063616e2063616c6c2074686960008201527f732066756e6374696f6e00000000000000000000000000000000000000000000602082015250565b7f4552433732313a20696e76616c696420746f6b656e2049440000000000000000600082015250565b7f4552433732313a20617070726f76616c20746f2063757272656e74206f776e6560008201527f7200000000000000000000000000000000000000000000000000000000000000602082015250565b7f4552433732313a20617070726f76652063616c6c6572206973206e6f7420746f60008201527f6b656e206f776e6572206f7220617070726f76656420666f7220616c6c000000602082015250565b612e1c81612859565b8114612e2757600080fd5b50565b612e338161286b565b8114612e3e57600080fd5b50565b612e4a81612877565b8114612e5557600080fd5b50565b612e61816128c3565b8114612e6c57600080fd5b5056fea2646970667358221220cd441186579207adafd2e532e5c4127151ab0dd6836de16e4972624a7ce15bda64736f6c63430008040033",
  "linkReferences": {},
  "deployedLinkReferences": {}
}